:020000041000EA
:1000000000B5324B212058609868022188439860DF
:10001000D860186158612E4B002199600221596106
:100020000121F02299502B49196001219960352056
:1000300000F044F80222904214D00621196600F024
:1000400034F8196E01211966002018661A6600F04E
:100050002CF8196E196E196E052000F02FF8012189
:100060000842F9D1002199601B49196000215960AB
:100070001A491B48016001219960EB211966A021F2
:10008000196600F012F800219960164914480160C1
:100090000121996001BC002800D000471248134993
:1000A000086003C880F30888084703B5996A0420EC
:1000B0000142FBD001200142F8D103BD02B5186610
:1000C0001866FFF7F2FF186E186E02BD00000240BE
:1000D000000000180000070000035F00212200005C
:1000E000F4000018222000A00001001008ED00E03C
:1000F00000000000000000000000000074B24E7A12
:1001000000200420F7010010CB010010CD010010E9
:10011000C9010010C9010010C9010010C901001077
:10012000C9010010C9010010C9010010CF01001061
:10013000C9010010C9010010D1010010D301001045
:10014000C1010010C1010010C1010010C101001067
:10015000C1010010C1010010C1010010C101001057
:10016000C1010010C1010010C1010010C101001047
:10017000C1010010C1010010C1010010C101001037
:10018000C1010010C1010010C1010010C101001027
:10019000C1010010C1010010C1010010C101001017
:1001A000C1010010C1010010C1010010C101001007
:1001B000C1010010C1010010C1010010C1010010F7
:1001C000EFF30580103800BE00BE00BE00BE00BECA
:1001D00000BE00BEF2EB88711CDF001040DF001093
:1001E0003802001090A31AE700201E49086006C8D4
:1001F00081F3088810471C480068002801D00020BF
:10020000F3E70DA40ECC002902D000F012F8F9E7B4
:100210001649174A002000E001C19142FCD115495E
:100220008847154988471549884700BEFDE701C939
:1002300001C29A42FBD3704740DF0010C00000208B
:1002400020440020A022011000000420000004200F
:10025000A022011000100420001004200000000063
:100260007047000008ED00E0000000D020440020AE
:10027000F07A0220C59F00108D550010BD9F001020
:10028000F0B5DE464E4645465746E0B5BC4C060046
:10029000A544140080220D009200002110A808F04F
:1002A000A3FA2022002108A808F09EFA002C10D002
:1002B0000022002390469146934692460292009275
:1002C0000192EA5C591C89B2FE2A11D14A1CA24251
:1002D00032DB2223F35C5A1E9341C422B354912390
:1002E0009B009D44F0BCBB46B246A946A046F0BD6B
:1002F00003231340032B27D05818A042E9DC002B1E
:1003000042D0685C022B3DD16B185B781B0218430E
:1003100002231709CB181207920F9BB2012A2CD087
:10032000022A33D0002A04D1082F3BD00022914664
:100330009046A342C5D3CCE76A5C03339BB29B18BB
:10034000A342C6DC9BB2F4E70B1DA342C1DC6B18D1
:100350009C4658786B5C0002184363469B781709EB
:100360001B0403436046C0781207000618430423A9
:10037000CB18920F9BB2012AD2D1002F2BD182B27F
:100380000192D6E70123C4E70020C2E7002F2BD15A
:1003900049460F29CDD84A1C08AF4900D2B2914630
:1003A000C853C6E75A462027510008AAD2191F3F52
:1003B000BC46525A074202D1019F0C2F19D0574612
:1003C000009878432027121808A8C019425200222A
:1003D00091469046ADE7072F3DD0082F38D0092F22
:1003E000A7D1C2B29246A4E7012FA2D1B84602908B
:1003F0009FE7009F013F0F2FE1D802270740049796
:10040000022707422AD12220375C80460F2FD6D8F8
:10041000781C03974746F055039FB800C01924275E
:1004200040008146B846B144C844474658463870F3
:100430004846C28428208046C8444046009F077032
:100440004F4604987885484667462C300770B6E7D3
:10045000C2B293466DE7C2B200926AE750460028E6
:10046000ADD022204746305C002F56D008AF05970C
:100470000027B44604911E00059906943B00140021
:10048000039205952DE0029AD518ADB2B62D2FD95D
:100490002A00CD3A92B21D2A2CD83A4FD7403A00C2
:1004A000012717422ED0A84662462225471C5755E1
:1004B000820010184000604402005D460797009FCC
:1004C00024321570C48417714246428500222C30B4
:1004D00001330270DAB2E4190231524516D26A468B
:1004E000107F0F2812D8DAB24A45CCD20D88CDE75A
:1004F000B42DD8D80133DAB2924507D9009D023124
:100500006419F1E7DB19DAB29245F7D83300039AA0
:1005100066460499059D069C51E708AF039700279E
:10052000BC46370004930694634690460E001400C0
:10053000BC4605950F285ED86246B446060004986E
:10054000994521D80133DBB2534511D04146009D76
:10055000491988460399023103914146009D0133B0
:10056000491988460399DBB2023103919A45E7D1D4
:100570001600030022006146059D069C1FE7C04649
:10058000BCFDFFFF0100203003990D88B62D2FD947
:100590002900CD3989B21D29DFD81A4FCF40390043
:1005A00001270F42D9D00490300066469446222796
:1005B0006146421CCA5507928200101840006044F0
:1005C000020059464746243211700099C7841171C0
:1005D000002245852C300270039A01337F180232C5
:1005E000DBB2B84603929A4505D06A46107FA1E770
:1005F000B42DB2D9D7E722003100049B6646059D91
:10060000069CDCE601002030274B10B5196882B04B
:100610008B005B1825499B005B18254901900968F0
:1006200001AAC0B2002938D0224900041C686040E9
:100630000140802040011B1819601F4B19688B0076
:100640005B181A499B005B1851788C461B49096856
:10065000002926D0614609048C461649644618686C
:1006600060400140802040011B181960144B9078B5
:100670001968144A8B005B1812680C499B005B18C0
:10068000002A0CD00B4A0004196841400A4080211E
:1006900049015B181A6002B010BD0B49C6E70A4A4F
:1006A000F2E70949DAE7C046107302200C00054062
:1006B000384F00200000FFFF0C730220344F002051
:1006C00008730220304F0020FFFF000070B5534B2D
:1006D00082B01B78002B06D1514A524B12781B78FE
:1006E0001A43141E01D002B070BD4F4B1A784F4B05
:1006F0001B789A42F7D14E4A1368C31A132BF2D9CA
:100700004C4B10601A78002A07D0C8214A4A890049
:100710001268821A8A4256D31C70484B1B78002BF1
:1007200062D0474B1B784A2B16D8312B63D8182B35
:1007300066D800220026FF25FF24424B1B78022B9F
:100740001AD00DD8002B0ED000236A4693809371E7
:100750000198FFF759FFC6E7FF260025FF22ECE7C7
:10076000033B012BF0D86B465A7000221C709A7024
:100770000098FFF749FFB6E7334B34491B68C01AAE
:1007800007F000F9324B994201D9304B591A08024F
:10079000401A304907F0F6F82B0043430400FF21CC
:1007A000180007F0EFF86B4618713000FF21604326
:1007B00007F0E8F86B466A46587100239371019878
:1007C000FFF722FF8FE71000642107F0DBF8012319
:1007D0001A000240034218D101AB1A80FF229A701E
:1007E0000198FFF711FF7EE701AA1380937001982B
:1007F000FFF70AFF77E7FF26FF25FF22FF249CE78C
:100800004B26FF254B22FF2497E7002201AB1C80DB
:100810009A700198FFF7F8FE65E7C046E87A022073
:10082000E57A0220DD7A0220EB7A0220EC7A0220BF
:100830003C540220DC7A0220706E0220B37A02203F
:10084000B27A0220B07A02202C4E002094110000CF
:10085000C9080000CA080000F0B5DE464E4645460D
:100860005746E0B5BC4C0600A544140080220D009C
:100870009200002114A807F0B7FF202200210CA845
:1008800007F0B2FF01230AAA5B420A939380002C6F
:1008900028D00021002000238B468946B2460190D3
:1008A000069000900390029004900590E85C5F1C15
:1008B000BFB2FE281FD1781CA04250DB49465646E5
:1008C00000290FD0118853880B40A4498B4209D0CE
:1008D00058460AA928314300CB5A0733DB08591E72
:1008E0000F292ED995239B009D44F0BCBB46B246F0
:1008F000A946A046F0BD03230340032B37D0DE19E1
:10090000A642DBDC002B52D0EE5DB446022B4CD16C
:10091000EB195B781B021E43B44602230109FB1846
:100920000007800F9BB2012839D0022842D000284E
:1009300004D109294CD0002000900190A342B5D3E6
:10094000BCE7C52170540131735433000A99C83390
:10095000196092889A80CE230122F254C2E7E85DA2
:1009600003339BB21B18A342A8DC9BB2E6E73B1DF6
:10097000A342A3DCEB1919005B78EE5D1B021E435A
:100980008B781B043343CE78010936061E430423BB
:100990000007FB18B446800F9BB20128C5D100297F
:1009A0007CD1614689B20591C8E70123B6E70021F1
:1009B0008C46B3E700297CD100990F29BED8664642
:1009C000481C4F000AA90831CE53C1B20091B5E7C7
:1009D0006646039847000AA82830C05BF10752D446
:1009E000614689074FD5059908294CD104990129F9
:1009F00049D10299002946D00199002900D1AFE0E0
:100A00000099002900D1A4E0029EB4468E4200D98C
:100A10008C466146C9B20E000CA9079100210896C8
:100A2000884656464946A4469A4609950CE0039CDA
:100A30005C4513D04346079C013302340794089C5D
:100A40009846DBB29C4244D9079B1B88013B9CB271
:100A5000022CEFD80029EAD103998B46590043466E
:100A6000C31853520199E5E7C246042101980133A6
:100A7000029C0131DBB289B29C423ED853466446A7
:100A8000B246814600980499029E4E430AA9283135
:100A90008019C8530021009101914FE7072914D014
:100AA00008290ED0092900D048E76146C9B2029151
:100AB00044E7012900D041E76146069101210191F7
:100AC0003CE76146C9B2039138E76146C9B2049177
:100AD00034E78946089953466446B2468C46009EE0
:100AE0000299099DB142CED90699564661449A466B
:100AF000009063464846A44689B24C1EA046A4B264
:100B0000022CB4D8002877D1039883464046400091
:100B10008146009C0698241AA046884440464C46CC
:100B20001053581C029CC0B2A04263D2032959D072
:100B30000300D046013189B2039858454ED00133A5
:100B40000298DBB2984242D9481C03298CD081B26A
:100B5000F2E78C46C8E7C046ACFDFFFFFFFF000090
:100B6000009900298FD0029EB4468E4200D98C464F
:100B70006146C9B201910CA9009100219C468846AA
:100B80005646494607950894009B1B88013B9CB23A
:100B9000022C08D8002916D103998B4659004346E8
:100BA000C318535201214346009C01330234009480
:100BB000019C9846DBB29C42E6D889466346B24621
:100BC000079D089C5FE7039DAB45ECD1E6E74346F4
:100BD0000199B24664468946009854E7481EC246C9
:100BE000804693E702330299DBB2994202D905218C
:100BF00001983CE75346EBE7D0469DE780231C4A2B
:100C00009B01116870B54B40E021C9010B401949A7
:100C10000B600421184B1960FC3113680B42FCD0A7
:100C200080214020002504265368134C104A4900B7
:100C3000266013680B42FCD0536801381B041B0C60
:100C4000C0B2ED180028F3D10C482035AD09684337
:100C50000B4B0C49C01806F095FE0B4BC2180B4B02
:100C60009A4204D900200A4A13680133136070BD08
:100C700000C0044000D0044000E0044067260000AB
:100C8000FF070000FF0F000010F5FFFFAA0500009E
:100C9000104E0020030070B504281FD0032803D095
:100CA0001C4A1278002A24D100221B4C0020A25694
:100CB0002578002A00DA70BD184A10787F22401982
:100CC0000240D0008018164A8018037008220130B4
:100CD00007F090FD6B1C01202370ECE711480822FF
:100CE0000370013007F086FD01220F4B01201A70BE
:100CF000E1E700220D4C0020A2562578002ADADB1D
:100D00000B4A10787F2240190240D0008018094A0F
:100D1000DAE7C046DB7A0220E57A0220E67A022092
:100D200028730220204E0020B57A0220DD7A0220AE
:100D3000DE7A0220786E02200022234B70B51A70F2
:100D4000224B1B78002B05D0214B01781D001B780E
:100D5000994211D006F004F8002908D0FA220023A5
:100D6000920006F04DFE1B4B1430186070BDFA2146
:100D7000890006F007FEF6E7C3781C1EEAD181223F
:100D800000200BF049FD144B1C7005F0E9FF002911
:100D900014D0FA220023920006F032FE0F4B1860A6
:100DA0000F4B1B781C00032BE0D8190028780AF0A1
:100DB000BFFD01220B4B50401855D7E7FA2189009F
:100DC00006F0E0FDEAE7C046CD7A0220CC7A0220A8
:100DD000CA7A022038540220CE7A02201C54022003
:100DE000CB7A022014540220F0B54F46D646464630
:100DF000C0B59A46089B1F0A089B1B0C9846089B87
:100E00001B0E99461E4B1B78002B27D100231D4C2F
:100E1000E3562578002B04DAE0BCBA46B146A84672
:100E2000F0BDAC46184B1B789C4466467F2333408C
:100E3000DE00B4469C44154B6344DA7013265246D8
:100E40001E70587099701A71089A9F715A714246B3
:100E5000DA714A461A726B1C2370DDE700230C4CD2
:100E6000E3562578002BD7DBAC460A4B1B789C4415
:100E700066467F231E40B446F3009C44064BDBE7E6
:100E8000DB7A0220E57A0220E67A0220287302202B
:100E9000DD7A0220DE7A0220786E0220F0B5574615
:100EA0004E464546DE46E0B5C7B0060007794579AF
:100EB00005F056FF002928D0FA220023920006F000
:100EC0009FFDB44BB4491860B44BF4781A78002AEB
:100ED00027D1B34AB348944601220C701A700770A8
:100EE000102F2BD0172F00D199E2AF4A1378002B87
:100EF00068D063461D703B00113BDBB2052B00D967
:100F00006EE2AA499B00CB589F46FA21890006F061
:100F100039FDA04BA0491860A04BF4781A78002A3C
:100F2000D7D00A789F489046A24237D09C4A0C708E
:100F30009446012207701A70102FD3D1727A317A39
:100F400012020A43B17AB37909041143F27AF079B3
:100F500012060A4361460D70012B00D050E20128B1
:100F600040D1130092490A3BFF3B8B4200D872E20A
:100F70000321904B0320197000218F4B19708F4B68
:100F800029001A60009200232200FFF72DFF47B0CE
:100F9000F0BCBB46B246A946A046F0BD0278BA42B4
:100FA000C4D17F4A94461278AA4295D18149824B96
:100FB000087882491B780968424600912900FFF7AA
:100FC00013FFE4E76246092115707A4A092011707F
:100FD000794A29001370794A136022000093FFF7C1
:100FE00003FFD4E70822734B29001A700022724BCA
:100FF0001870724B1A600300009208202200FFF75D
:10100000F3FEC4E700236E496E480B606E4903800F
:101010000B606E4914200B606D490B60002111704C
:101020006C4A11706C4A11706C4A11706C4A1070E5
:101030006C4A073811705F4A10705F4A11705F4A3E
:101040002900136022000093FFF7CEFE9FE7624B5A
:101050001B78002B00D127E2EC22FF210BA807F020
:10106000C3FB614B06AF0693604B012007938123BE
:101070009B013B81524B39001B680126FB60524BA0
:101080005B4A1B68BD729846FC723B6140420B781C
:1010900001314340580833405B42134058404308F5
:1010A0003040404210404340580833405B421340B8
:1010B00058404308304040421040434058083340B5
:1010C0005B42134058404308304040421040434088
:1010D000580833405B421340584043083040404278
:1010E000104058400BAB8B42D1D1C3437B610423EA
:1010F00040485B42BB610CF0D7FB002800D0AEE358
:1011000005222C4B29001A702B4B013A1A70002231
:101110002A4B05201A60009204232200FFF764FE88
:1011200035E7F37AB27A1B0213438122920193428C
:1011300000D0CBE1254B1B68002B00D192E20A21A5
:101140001C4A0A2011701C4A093911701B4A2900D7
:101150001360009322000123FFF746FE17E71B4BA5
:101160001E681C4B1B78002B04D0154B1F68B74220
:1011700000D1EDE10A220F4B29001A700E4B073AFD
:101180001A700E4B22001E600A2003230096FFF700
:101190002BFEFCE66C6E0220C37A0220C47A022089
:1011A000C77A0220C27A0220C87A0220F0D9001041
:1011B000F70E0E00C67A0220C57A0220A04F00204A
:1011C000A4500220A67A02209C4F0020884F0020C5
:1011D0008C4F0020BF7A0220C07A0220C17A022000
:1011E000BC7A0220BA7A0220544F4B570100010109
:1011F0002083B8ED00F03F00C54F3B689946C54BD2
:101200001B78002B00D171E1C34B1A78002A00D063
:101210006CE1C249F07A0B780133DBB2834200D033
:10122000E7E30B70BE4B48461B6898464B4501D818
:1012300000F031FCBB490A888A46531C9BB20393D9
:101240000B80B379B8498B54421C02923A608022D9
:10125000039B52008B469446934200D11FE2029BAF
:10126000434500D3A7E050465A4601884B1C9BB229
:101270000380F07950544A46911C029139606345CD
:1012800000D04FE28021A94B490304931B68C91881
:10129000059303911B0505D108000CF005FB002800
:1012A00000D1E7E3594603980CF046FB002800D133
:1012B000CBE3059B049A0133FF33136052460023AE
:1012C00064201380029B4146584306F05BFB0221D9
:1012D000974AC3B21170974A02981370964A290030
:1012E0001060009022000220FFF77EFD02988045EA
:1012F00061D951460B885A1C0A805946327ACA5421
:101300004B46033303933B600398404500D3ACE363
:1013100051460A88531C9BB20B809C465B46717AEF
:101320009954421C02923A6080225200944500D0A7
:1013300050E280217D4B490304931B68C918059333
:1013400089461B0505D108000CF0AEFA002800D133
:1013500090E3594648460CF0EFFA002800D174E3B8
:10136000059B049A0133FF33136052460023642027
:101370001380029B4146584306F004FB02216C4A4D
:10138000C3B211706B4A029813706B4A2900106047
:10139000009022000220FFF727FD029B43450AD25E
:1013A00051460B885A1C0A805946B27ACA54039B8C
:1013B000023302933B60029A904500D0E7E5022297
:1013C0005B4B29001A705B4B62321A7042465A4BD3
:1013D00002201A60009264232200FFF705FDD6E583
:1013E0000822534B29001A700022524B08201F700C
:1013F000514B1A6000923B002200FFF7F5FCC6E556
:1014000007214B4A0720117000214A4A13704A4AAB
:101410001160009122002900FFF7E6FCB7E5634662
:101420001D70B379012BEBD1F379012B2DD1434BF7
:10143000434A1968914200D170E200233C4A2900D6
:1014400013703C4A002013703B4A13602200009343
:10145000FFF7CAFC9BE500233A4914270B602C498F
:10146000304E0B60314933800B600021294E3170C2
:10147000294E3170294E3170334E3770284E32600C
:10148000324A107002202A4AD6E50821284A08204C
:1014900011700021274A1370274A11600091220021
:1014A0002900FFF7A1FC72E50A21194B0A201A68EE
:1014B0001F4B19701F4B063919701F4B29001A60FA
:1014C000009204232200FFF78FFC60E50721184AF1
:1014D000072011700021174A1170174A2900136064
:1014E000009322000023FFF77FFC50E50A22104BF7
:1014F00029001A700F4B083A1A704A460E4B0A2000
:101500001A60009202232200FFF76EFC3FE5C046FE
:10151000884F0020BF7A0220C07A0220C17A0220C0
:10152000A4500220A67A0220A44F00208C4F002055
:10153000C67A0220C57A0220A04F002000F03F109A
:10154000544F4B579C4F0020BC7A0220C87A02208F
:10155000E04B9A461B889846002B20D0FF2B00D9E1
:101560006EE28022DC495200D21A8B46C81892B231
:10157000FF2107F039F98020D84B400302931B6804
:101580005946C01899460CF0D7F9002800D146E218
:101590004346029A4B441360002352461380E022D4
:1015A000CF4B12061B689B188422D202934200D9AB
:1015B0007EE10122CB4B1B681A4200D178E19343B4
:1015C000C94A9B18C94A934200D971E101235B4281
:1015D000002F33D0C64B01201E00FF180123C54940
:1015E0005B423278013653405A0803405B420B405D
:1015F0005A405308024052420A4053405A0803409E
:101600005B420B405A405308024052420A4053404A
:101610005A0803405B420B405A4053080240524272
:101620000A4053405A0803405B420B4053405A085B
:1016300003405B420B405340B742D2D1DA43AE4B3A
:101640001968914200D11BE20420AC4BAC491870E0
:1016500000230B70AB490A60009229002200FFF7BB
:10166000C3FB94E4F279B17912020A43317AA248B9
:1016700009041143727A12060A4301210260A24A48
:10168000022011709D4A013111709D4A290013708A
:101690009C4A136022000093FFF7A6FB77E48021A9
:1016A0008E4B490304931B68C918059303911B05CE
:1016B00005D108000CF0F8F8002800D1DAE159460D
:1016C00003980CF039F9002800D1BEE1059B049A7B
:1016D0000133FF3313605246002364201380029BC2
:1016E0004146584306F04EF90221844AC3B21170B4
:1016F000834A02981370834A2900106000902200E8
:101700000220FFF771FB029B434500D353E651468D
:101710000B885A1C0A805946F279CA544B46023348
:1017200002933B600298404500D344E651460A8844
:10173000531C9BB20B809C465B46317A9954421CE9
:1017400003923A6080225200944500D0DCE580216B
:10175000624B490304931B68C918059389461B050E
:1017600005D108000CF0A0F8002800D180E159460E
:1017700048460CF0E1F8002800D164E1059B049A8A
:101780000133FF3313605246002364201380039B10
:101790004146584306F0F6F80221584AC3B2117088
:1017A000574A03981370574A29001060009022008E
:1017B0000220FFF719FB039B434500D356E1514636
:1017C0000B885A1C0A805946727ACA54029B02330B
:1017D00002933B600298404500D3ECE551460A88ED
:1017E0000130531C9BB20B80B17A5E46B15480220B
:1017F000029038605200934200D0DCE5374B1E68FF
:10180000049380235B03F718330505D138000CF0EF
:101810004BF8002800D12DE1594638000CF08CF827
:10182000002800D111E1049B0136FF3652461E60AC
:1018300064200023029E41461380704306F0A2F804
:1018400002212E4AC3B211702D4A290013702D4A6D
:101850000220166022000096FFF7C6FAABE53900B9
:101860002A480CF069F8002800D149E40B22234BE8
:1018700029001A70224B59321A704246214B0B2014
:101880001A60642300922200FFF7AEFA204B1E700C
:1018900005F066FA002900D1BCE0FA22002392008C
:1018A00006F0AEF81B4B1C4AC0181060FFF76FFB28
:1018B0000722124B29001A70114B063A1A700022A7
:1018C000104B07201A60009201232200FFF78CFAC8
:1018D000FFF75DFBA67A0220A44F00208C4F00206A
:1018E000000110100401101000FFFFEFFFFE0F00B9
:1018F000000010102083B8ED9C4F0020C67A022013
:10190000C57A0220A04F0020BF7A022000F03F00DD
:10191000BA7A0220DC0500007C4F00209A88012A58
:1019200000D08AE59A79012A00D086E5DA79012A81
:1019300000D082E5812219899201914200D07CE594
:10194000DB68564A0A3BFF3B934200D975E5544891
:101950000123A446012104004669524A524F5B42CA
:10196000207801345840430808404042104043402A
:1019700058080B405B42134058404308084040421F
:101980001040434058080B405B4213405840430806
:10199000084040421040434058080B405B4213400F
:1019A00058404308084040421040434058080B400C
:1019B0005B4213404340BC42D2D1DB4364469E426B
:1019C00000D03AE5364A9369043300D035E50C215E
:1019D000364B126919700021354B0C201970354BAC
:1019E00029001A60009200232200FFF7FDF9FFF79B
:1019F000CEFA02212D4B022019702D4B29001A70AE
:101A00004A462C4B1A60009200232200FFF7ECF9A3
:101A1000FFF7BDFAFA21890005F0B4FF42E705227D
:101A2000224B29001A70224B023A1A70214B2200D5
:101A30001E60052003230096FFF7D6F9FFF7A7FAEB
:101A40001D4B9B4697E5039B02930520174B184AB5
:101A50001870022313700299164A11600091220037
:101A60002900FFF7C1F9FFF792FA039B0293A2E462
:101A7000039B029305200D4B0D4A18700123E9E7E3
:101A8000012206200D4B1A70084B094A1870642376
:101A90001370084AE1E702908DE4C046F7FE1E008D
:101AA00000F03F102083B8ED14F03F10C67A0220FA
:101AB000C57A0220A04F0020A44F0020C07A022047
:101AC000F0B5D0258026070087B06C460C22002197
:101AD0002D06B602684606F087FE02200021AE61A0
:101AE00004F00CFF0C236A46390025480BF0E4FE95
:101AF0000220002104F002FF224A6E6113680020D8
:101B00000133136023785A2B01D007B0F0BD6378FE
:101B1000032BFAD16A4603AB23CA23C3A378022B53
:101B200028D0012B18D16279134215D0164BE178D9
:101B300018782579A279002810D114480270144A27
:101B4000117001221A70072312492B400878834232
:101B500002D00B70104B1A700120D6E70B480478A6
:101B60009442EBD10A4A1078081A40B20028E7DC08
:101B70000120CAE703A8A373FFF790F90120C4E787
:101B800000C00340D8770220E27A0220E07A0220E7
:101B9000E17A0220D27A0220D47A022030B5144BA6
:101BA00085B001AC23800323124AA3701378200070
:101BB000591CE37002230293002311700393FFF773
:101BC0007FFF0D4B0D4A9B6A136000280ED10C4A13
:101BD000643323CC23C201210A4A11700A4A1170CE
:101BE0000A490A6801320A60094A136005B030BD2B
:101BF000A5030000E47A022000400540AC770220F3
:101C0000B8770220E87A0220E77A0220B077022033
:101C1000B4770220F0B55746DE464E464546E0B55D
:101C2000E44BDDB00B93E44B59AC1993E34B0F93AA
:101C3000E34B9B46E34B0693E34B1093E34B189324
:101C4000E34B1C93E34B1D93E34B1793E34B099337
:101C5000E34B0893E34B1E93E34B1F93E34B20931B
:101C600056AB9946E24B0E93E24B2593E24B2693FB
:101C7000E24B0793E24B1A93E24B1B93E24B219307
:101C8000E24B0A93E24B9A46E24B1293E24B1393D8
:101C9000E24B1493E24B0D93E24B1193E24B2793EB
:101CA000E24B2993E24BE34F9846E34B0493E34B1B
:101CB0000593E34B2E93E34B2A93E34B3C93E34B87
:101CC0004593E34B3D93E34B4693E34B4193E34B07
:101CD0003193E34B4A93E34B3F93E34B2893E34B1E
:101CE0004293E34B2D93E34B4F93E34B5093E34BE2
:101CF0004B93E34B2F93E34B3993E34B3793E34BF6
:101D00003B93E34B3293E34B3593E34B3493E34BF9
:101D10004393E34B3093E34B4793E34B4893E34BBD
:101D20004093E34B3693E34B3393E34B4993E34BBD
:101D30003E93E34B5193E34B5293E34B4493E34B7A
:101D40005393E34B2C93E34B3A93E34B4C93E34B8A
:101D50004D93E34B4E93E34B2B93E34B3893434626
:101D6000D846BB46039305F0ADFB57465E46039A43
:101D700033781278DDB2934200D14EE2BFF35F8F29
:101D8000A9004919049B490049190B222000591840
:101D900006F030FDBFF35F8F3F2301351D403570E6
:101DA0002578052DE3D8059AAB00D3589F46607976
:101DB000532801D101F030FCA379532B01D100F05D
:101DC000A0FFE379532B01D100F09BFF237A532B23
:101DD00001D100F096FF637A532B01D100F091FFFF
:101DE00002239A460023A27A0C93532A01D100F0D1
:101DF00088FF392801D100F09BFFA279392A01D14F
:101E000001F0CBF9E279392A01D101F0C6F9227A41
:101E1000392A01D101F0C1F9627A392A01D101F0E0
:101E2000BCF9A27A392A01D101F0B7F9472801D1CA
:101E300001F0C7F9A2799246472A01D100F008FFC4
:101E4000E279472A01D100F003FF227A472A01D123
:101E500000F0FEFE627A472A01D100F0F9FEA27A74
:101E6000472A01D100F0F4FE0B9A0C9B1370042852
:101E700001D100F00CFF5346042B01D101F0C3F94E
:101E8000E3799C46042B01D101F05FFC237A042BFB
:101E900001D101F085FA637A042B01D101F080FAB7
:101EA000A37A043B5A425341DBB20C93072801D179
:101EB00001F07CFA5246072A01D101F0A7FCE27931
:101EC0009446072A01D101F0D9FC227A072A01D1D0
:101ED00001F09AFA627A072A01D101F095FAA27A02
:101EE000073A51424A41D2B21A2801D101F091FA7F
:101EF00051461A2901D101F092FCE1798C461A2948
:101F000001D100F0EAFE217A1A2901D101F092F9FB
:101F1000617A1A2901D101F08DF9A17A1A390B00E1
:101F200059425941CBB21593162801D100F0E5FE74
:101F30005046162801D100F0E0FE6046162801D177
:101F400000F0DBFE207A162801D100F0D6FE607A80
:101F5000162801D100F0D1FEA07A163803005842AD
:101F60005841C3B216930D980078002801D000F0B4
:101F7000FAFC0C9B002B01D101F0F5F8002A01D1ED
:101F800001F0A2F9139B1B789A46042B01D101F0B2
:101F900014FF0723139A1370159B002B01D100F037
:101FA0004FFE169B002B01D101F05EFA07239A46E3
:101FB00000F07BFDD57A0220D27A0220D47A02206A
:101FC0006C6E0220DB7A0220DF7A0220683D00205E
:101FD000D77A0220784F0020E27A0220A87A0220E5
:101FE000D87A02202454022020540220D07A0220E1
:101FF000DD7A0220DE7A0220786E0220E57A022065
:10200000E67A022028730220A47A0220B97A0220FC
:10201000646E02205C6E0220AC7A0220AD7A02204F
:10202000DA7A0220D97A0220D4770220704F002079
:10203000EB7A0220EC7A0220E077022008DA001026
:10204000AC770220E87A0220E77A0220247302208B
:10205000B8770220B0770220B4770220B57A022048
:10206000204E0020E97A0220C87A0220746E0220F5
:10207000B77A0220DC7A0220706E0220D37A022026
:10208000B07A0220144E0020B37A02200C4E0020B9
:10209000044E0020084E0020B67A0220B27A0220B8
:1020A000B17A022058440020AF7A0220AE7A022092
:1020B000A27A02202C4E00201C4E0020184E002038
:1020C000BCDB0010B47A022054540220A87702200E
:1020D000BA7A02207C4F0020A4500220804F0020BA
:1020E000BB7A0220BC7A0220844F00200822002103
:1020F000484606F079FB04F033FE002900D1DCE30A
:10210000FA220023920005F07BFC43461860069BF0
:102110001B785A1E012A00D8DBE3002B00D0DBE33A
:10212000079B1D781B785BB2002B12DB7F231A9A6A
:1021300049461278AA181340D800C01801231B9AE8
:102140000135101803700822013006F053FB079B7D
:102150001D70089B1B78002B03D0099B1B88002B4C
:102160003DD004F0FDFD002901D100F036FEFA2239
:102170000023920005F044FC43461860069B1B7840
:102180005A1E012A01D800F035FE002B01D000F0C4
:1021900034FE0022079DAA562978002A01DA00F0B1
:1021A000E4FD7F201A9A12788A181040C200121893
:1021B0001B98013182180220537010709370D370F5
:1021C000137153719371D371137229700023099A9B
:1021D0001380089A0133137000230A9A137008229F
:1021E0000021380006F000FB08220021129806F0BA
:1021F000FBFA0023139A1370149A13700D9A13703C
:10220000119A13700F9A1370179A1370039A3378F8
:102210001278DDB2934200D0B0E50A9BBA461B7833
:10222000B346002B01D001F09FFA089B1B78002BCE
:1022300001D001F041F9069B1B78012B6BD82E9B36
:102240002A991A680B78002B11D0D74DAB6A9B1ACC
:10225000632B60D93C980378072B01D801F090FEDE
:1022600000230B70459903700B6801330B60CE4B54
:102270009B6A9B1A952B4ED9079B1A78002A01D18D
:1022800001F06DFD1A991B9D0978013AC8004018AC
:102290002B182D5C587801310C9018799E78844663
:1022A0005879DF78229098791690D8791590187A15
:1022B0007F230B401A990B70079B1A703F990B787C
:1022C0005A1C0A703D99B94AC8720A800C9A0800D3
:1022D0000A716246CA71229ACB700A72169A8D7080
:1022E0004A72159A4E718A728F71FFF7E9FBAE4BF5
:1022F0002E9A9B6A1360002200280AD13C99013271
:102300000A70469964330A6801320A60419A136080
:1023100001222A9B1A70289B1B78002B00D016E103
:1023200004F01EFD002901D101F025FBFA22002353
:10233000920005F065FB069B1B78022B01D101F092
:1023400024FB289A12781592012B01D101F052FC3E
:10235000032B01D101F03DFD43461B68C01A944B8D
:1023600098423BD9119B1B78002B06D0129A136818
:10237000002B33D15368002B30D1089B1B78002BE6
:1023800003D0099B1B88002B28D14B9B1B78002B6B
:1023900024D12A9B1B78002B20D1079F0E9B3A78D3
:1023A0001E7816431AD10125319B25601E702D9B86
:1023B00066601D701A9B21001A787F231340D80095
:1023C000C0181B9B0822181803230370013006F065
:1023D00011FA069B3D701D70109B1E70159B002B03
:1023E00000D0B4E004F0BCFC002901D101F0DCFA1B
:1023F000FA220023920005F003FB0600FA222F9B2D
:1024000039991F780B689200F31A934201D201F0B8
:10241000DCF80E60FEF7F2FB051E01D101F0D5F8E5
:10242000379B1B780C93002B01D101F093F8002F00
:1024300001D101F0BFFD3B990A6853009B181D189C
:102440005C4BAD080D609D4201D801F048FE5A4B2F
:102450009D4201D901F0C3FF6420584B5849EB1845
:10246000584305F08FFA439B479A187048980378B1
:102470009C46990053585550614616930F230131DD
:102480000B40037002D1409A01331370499B1B68C3
:10249000F31A01D501F08FFA329B1868002801D198
:1024A00028001D60359A1368002B01D001F0D7FD7C
:1024B000409B15601B789C46002B01D101F0E0FE8B
:1024C000169BE91A2B00022F01D101F0E5FF032F23
:1024D00001D101F060FB012F01D001F075FA364BFC
:1024E0009D4201D901F0FBFF2B1A092B00DDB8E159
:1024F0006246002A00D0B1E1002234998A56002BAE
:1025000001DB02F083F80723434332985B19DB08B1
:102510000360002A01DD013A0A70309B30001D780B
:10252000FEF7D4F8002D00D0BBE13E9B254A1B6886
:10253000F31A934201D801F068F801232D9A137021
:1025400043461B68F31A312B01D901F0ABF804F0B4
:1025500007FC002901D100F060FFFA22002392005D
:1025600005F04EFA069B1B78022B01D100F05FFFAD
:102570002A9A1178289A1278002A01D101F0C1F91B
:10258000002921D1079A127813431DD1319B1B7862
:10259000002B19D1044B2E9A9B6A12689B1A952B1B
:1025A00001D901F0D8F90FE000400540A503000073
:1025B000DF930400EA0B00005D10000016F4FFFF3B
:1025C000740400001F4E00002C9B1B78002B26D0AB
:1025D00004F0C6FB002901D101F0C1F9FA22002361
:1025E000920005F00DFA3A9B1B68C31A17D42A9B78
:1025F0001B78002B13D1079B1B78002B0FD1319B2D
:102600001B78002B0BD14C9A4D9912680A60BFF3CE
:102610005F8F01224E990A702C9A137040BF2B9B3A
:102620001B78132B18D804F09BFB002901D101F073
:102630009CF9FA220023920005F0E2F9389B1B680E
:10264000C31A09D4BC4ABD4B1168994201D101F0AB
:10265000F1FA14232B9A1370289B1B78002B01D0BE
:10266000FFF781FB039B1A785B461B789A4201D0E7
:10267000FFF779FB079B0E9A1B781278134301D062
:10268000FFF771FB319B1B78002B01D0FFF76BFB31
:102690000A9B1B78002B01D0FFF765FB2A9B1B7858
:1026A000002B01D001F078FD04F05AFBFA22002340
:1026B000920080185941002902DA0120A0494042C5
:1026C00004F0B8F8FFF74FFB04F04AFB002900D1F3
:1026D000EEE0FA220023920005F092F943461860DA
:1026E000069B1B78013B012B02D80123109A137023
:1026F0000023179A0999137000220B8008991998E2
:102700000A70012101700B990A700F990A701E9AC4
:10271000136004F025FB002900D1FDE0FA2200231C
:10272000920005F06DF91F9B209A1860002313702A
:10273000FFF71DFB04F014FB002900D1F1E0FA22A1
:102740000023920005F05CF943461860069B1B7855
:10275000013B012B02D80123109A1370FA23189A17
:102760001360FFF704FB52AA2032157852ABDB7FCF
:102770002D021D4301D000F0A6FC089B1B78002B06
:1027800005D0099B1B88AB4201D1FFF7F0FA2B0A59
:102790009A4604F0E5FA002900D1F1E2FA2200237A
:1027A000920005F02DF943461860069B1B785A1ECF
:1027B000012A00D8F0E2002B00D0F0E2079A11784D
:1027C000127852B2002A00DAC5E21A9802787F2005
:1027D0008A181040C20012181B980131821802207A
:1027E0001070504655709070D3701371537193717F
:1027F000D3711372079A1170099B089A1D800123E7
:10280000137000230A9A1370FFF7B1FA04F0A8FAC4
:1028100000297CD0FA220023920005F0F1F843460B
:102820001860069B1B78013B012B02D80123109AEC
:102830001370FA22189B92001A6063781C9A137026
:1028400004F08EFA002971D0FA220023920005F0DC
:10285000D7F81D9BFA301860FFF789FA032900DCCE
:102860004AE6349B1B785BB2092B01DC01F01FFEAA
:10287000359B369A1D60329B1D6000231380023306
:102880002F9A30001370339B309A1E60012313700F
:102890002D9A1370309B1D78FDF718FF002D00D185
:1028A00043E601232D9A13700C9B159300F0F3FE61
:1028B000FA21890005F066F810E7FA21890005F091
:1028C00061F843461860069B1B785A1E012A00D9FE
:1028D00023E40123109A13700E9B1D781B785BB2C2
:1028E000002B00DA35E47F23259A49461278AA188E
:1028F0001340D800C0180123269A01351018037020
:102900000822013005F076FF0E9B1D7021E4FA21AC
:10291000890005F037F882E7FA21890005F032F8DE
:1029200001E7FA21890005F02DF80DE7FA21890069
:1029300005F028F88DE7C04600F03F10544F4B5784
:10294000FFFFFF7F193B159353460122162B01D041
:10295000FFF7F8FA0D9B1B781693002B01D100F0BE
:10296000D6FC169A1592BB78F8789A46042B01D1BA
:1029700001F064F8042801D101F08AF83B7923932F
:10298000042B01D101F0A6F87B79042B01D100F0D2
:102990004EFFBB79042B01D100F049FFFB799C4627
:1029A00004235B429C4461464B424B412293534675
:1029B000072B01D100F042FF072801D101F0C6F832
:1029C000239B072B01D100F044FD7B79072B01D11C
:1029D00000F03FFDBB79072B01D100F03AFDFB79F8
:1029E0009C4607235B429C4461464B424B412493E7
:1029F00053461A2B01D100F033FD1A2801D101F002
:102A00003FF83B791A2B01D100F01FFD7B791A2B7F
:102A100001D100F01AFDBB791A2B01D100F015FD90
:102A2000FB799B461A235B429B4459464B424B41E0
:102A30009C465346162B01D100F08DFC162801D17F
:102A400000F089FC3879162801D100F084FC7879EF
:102A5000162801D100F07FFCB879162801D100F0CA
:102A60007AFCF87916380300584258410C9B002B29
:102A700000D068E307339A46002A03D10C9B9B00E1
:102A8000DBB29A465246139B1A70159B002B00D15D
:102A9000D8E01A239B46169B002B0DD063460028D6
:102AA00001D100F0FAFC012B06D1149B1B789B4648
:102AB0001A2B01D016239B465A46149B52A81A7013
:102AC000122306221818002105F08EFE4A46E378EC
:102AD0001370237953706379042B00D101E3072B22
:102AE00000D1B4E31A00FB21163A0A4200D199E260
:102AF000002B00D099E2A379042B01D100F02EFC29
:102B00000222072B01D100F06EFC1900FB201639C0
:102B1000014200D150E2002B00D050E2E379042BB7
:102B200000D1FAE2072B00D1ACE31900FB201639E3
:102B3000014200D112E2002B00D012E2237A042BD2
:102B400000D121E3072B00D1A1E31900FB201639A6
:102B5000014200D1CFE1002B00D0CFE1637A042BFA
:102B600000D14EE2072B00D1E7E21900FB20163915
:102B7000014200D18AE1002B00D08AE1A37A042B24
:102B800000D114E2072B00D147E21900FB201639CF
:102B9000014200D14FE1002B00D04FE11F2352A989
:102BA00008225918380005F025FE01230D9A1370EC
:102BB000119B1B78002B06D04B461A68129B1B6892
:102BC0009A4200D13AE304F0CBF8002900D14FE259
:102BD000FA220023920004F013FF43461860069B7C
:102BE0001B785A1E012A00D84EE2002B00D04EE27C
:102BF000079B1D781B785BB2002B01DAFFF7B7F853
:102C00007F231A9A49461278AA181340D800C01890
:102C100001231B9A0135101803700822013005F0BA
:102C2000E9FD079B1D704A46129B03CA03C301239B
:102C3000119A1370279A136801331360FFF797F8FE
:102C400007239A46169B002B00D134E7162332E760
:102C500004239C46634604210C9A1A430B9B0C9256
:102C60001A780B0013409B46114201D0FFF7FCF885
:102C70006146199B1A784A401A705A460F9B1A707F
:102C80000B9A0C9B1370042801D0FFF7F4F85346FD
:102C9000072B01D101F0E3FAE379072B01D101F011
:102CA000CBFA227A072A01D101F0E1FC637A072BE3
:102CB00001D101F0FFFAA27A073A53425A41534632
:102CC000D2B21A2B01D101F0F1FA0123E1790C9370
:102CD0008C461A2901D0FFF716F9162801D100F009
:102CE000D7FD5346162B01D100F0D2FD0123207AE7
:102CF0001593162801D0FFF72AF901231693FFF741
:102D000032F9012211000B9B1B7819401A4207D19E
:102D10000122199B1B785340199A13700F9B19704D
:102D200003239A46023B0C93392801D0FFF765F83C
:102D3000022211000B9B1B7819408C461A4206D1C7
:102D400019990B78534062460B700F9B1A705346CB
:102D50000C93FFF76FF8219B0A9A1D8001231370D3
:102D60000023089A1370FFF702F80023219A1380BA
:102D70000A9A013313700023089A1370FFF72FFA91
:102D8000FA21890004F0FEFD43461860069B1B787B
:102D90005A1E012A00D90EE50123109A1370002350
:102DA0000E98C3560178002BD5DB7F22259B1B781C
:102DB000CB181A40D3009B18269A0131D31802224F
:102DC0001A7052469A7000225D70DA701A715A7148
:102DD0009A71DA711A7201700EE5FA21890004F015
:102DE000D1FD43461860069B1B785A1E012A01D963
:102DF000FFF7CBF90123109A137000230E98C356E6
:102E00000178002BB1DB7F22259B1B78CB181A4061
:102E1000D3009B18269A0131D31802221A7000227F
:102E200001705A709A70DA701A715A719A71DA7167
:102E30001A72FFF7CBF95B4500D0AFE6022A22D029
:102E400049468978994200D1A8E6032A1BD0494611
:102E5000C978994200D1A1E6042A14D049460979DB
:102E6000994200D19AE6052A0DD0494649799942FE
:102E700000D193E6072A01D001F073F84946897919
:102E8000994200D18AE649468B5487E69B4500D09B
:102E900074E6022A1FD049468978994201D100F090
:102EA0001CFD032A17D04946C978994201D100F088
:102EB00014FD042A0FD049460979994201D100F046
:102EC0000CFD062A01D001F020F8494649799942C3
:102ED00001D101F020F848468354A37A511C042BF9
:102EE00001D100F006FDCAB2072B00D04DE65146D5
:102EF0000729A5D052E69B4500D02FE6022A17D01D
:102F000049468978994201D100F0D2FC032A0FD0BA
:102F10004946C978994201D100F0CAFC052A01D07E
:102F200000F0F0FF49460979994201D100F0C0FC58
:102F300048468354637A511C042B01D100F0C2FC33
:102F4000CAB2072B00D010E651460729A3D0A37AB6
:102F5000042B2CD0072B00D017E61FE69B4500D092
:102F6000ECE5022A0BD049468978994277D0042AA9
:102F700001D000F0ACFF4946C97899426FD048466D
:102F80008354237A511C042B01D100F086FCCAB271
:102F9000072B00D0D9E551460729B1D0637A042B1D
:102FA0002FD0072B00D0E0E5A37A042BD2D15346D3
:102FB000042B00D142E7F1E59B4500D0AEE5032AA2
:102FC00001D001F0A0FA4A4692789A4201D100F06D
:102FD0008DFF032148464354E3794A1C042B00D15A
:102FE0000DE2072B00D0A0E551460729BBD0237A7C
:102FF000042B00D1C8E0072B00D0A6E5637A042B90
:10300000CFD151460423042900D142E7A37A042BEF
:1030100000D1C3E5072B00D0B7E55146072900D101
:103020000CE7BBE55B4500D065E54A469370A379A4
:10303000042B00D016E15346042B5DD0E379042B1A
:1030400001D100F065FF0322072B00D06DE551464A
:10305000072900D035E149468978994287D1237AFA
:10306000042B01D100F080FF072B00D06DE592E723
:10307000FA21890004F086FC43461860069B1B7801
:103080005A1E012A00D9B0E50123109A13700E9B35
:103090001D781B785BB2002B01DAFEF768FE7F23F8
:1030A000259A49461278AA181340D800C01801235F
:1030B000269A0135101803700822013005F09AFB9A
:1030C0000E9B1D70AFE503F04BFE002900D1E3E03D
:1030D000FA220023920004F093FC299B1860FFF76A
:1030E0004CFB5346042B00D0DBE04B4652469A7013
:1030F000A379042B00D0B5E04B469A78AA462B0062
:103100000321042A00D065E7E3799A46042B01D114
:1031100001F0DFF992460A0004E551460423042930
:1031200000D11EE7237A042B00D00BE5637A042B31
:1031300000D16BE7072B00D017E55146072900D1D6
:10314000A7E604E70120002A00D1FAE0139B1B78D0
:103150009A46249B002B00D116E1229B012B00D123
:1031600015E1AA468EE4002A01D0FEF712FF139B58
:103170001A70159B002B00D163E5169B002B00D124
:1031800073E100239A4690E451460423042900D1B8
:10319000B4E6637A042BCDD138E753460C930B9BEE
:1031A0001A78920701D5FEF741FE0221199B1A7881
:1031B0004A401A7000220F9B1A70472801D0FEF770
:1031C00039FE04239C46634604210C9A1A430B9B48
:1031D0000C921A780B0013409B46114201D000F06C
:1031E000D6FD63461999A27992460A785A400A7028
:1031F00059460F9A0B9B11700C9A1A705346042B68
:1032000001D0FEF73DFE01230C93072801D0FEF705
:1032100056FEE3799C461A2B01D101F0A1F9227ADE
:103220001A2A01D101F039F8617A01221A2901D054
:10323000FEF773FE01231593FEF776FE4B465A68A0
:10324000129B5B689A4200D0BDE4FEF790FD5346A6
:10325000072B00D08FE04B4652469A70A379042B7F
:1032600000D1EBE60322072B00D04EE4514607299C
:1032700000D1A8E6E379042B00D14EE7072B00D05C
:1032800053E4B4E65146072900D16AE6AFE6514659
:10329000072900D132E681E6FA21890004F072FBA9
:1032A0001BE7A379042B00D02AE4E379042B00D197
:1032B000B0E30222072B00D037E45146072900D1A2
:1032C0005DE600239A4692E60423139A1370159B39
:1032D000002B00D1E8E0169B002B23D11A23149A6F
:1032E00052A81370083B06221818002105F07CFA3A
:1032F0004A46E3781370237953706379042B01D124
:1033000000F0CFFD1A22AA469346FFF7E8FB0C9B7C
:10331000002B01D100F01DFF139A1378042B01D06C
:1033200001F09BF9AA46FFF7C0FB0C9B002B01D1D3
:1033300001F096F9002A01D001F0C0F901239C4662
:103340001800229BAA46012B01D0FFF79BFBFFF739
:1033500095FB01239C460120FFF788FB5346042B75
:10336000A3D14B4652469A70E3790322042B01D035
:10337000FFF7D8FBF7E5A379042BEFD00222072B48
:1033800001D0FFF7C2FB75E7229B002B04D1534607
:10339000042B01D1FFF776FB07239A46FFF772FB58
:1033A00001230C93072801D0FEF784FD53461A2B06
:1033B00001D100F0F8FE63461A2B01D1FFF7C2FAE3
:1033C000227A1A2A01D100F064FF627A1A2A01D106
:1033D00000F0C1FFA17A1A394A425141CBB2012211
:1033E0001593FEF7A5FD5146072900D042E7484650
:1033F00005394354E3794A1C042B00D0F1E55146CA
:10340000042900D1AFE58DE601221A2801D0FEF78C
:103410006FFD01231593FEF78BFDFA21890004F05F
:10342000B1FA069B1B78022B01D0FFF7A1F8449953
:10343000EF4A0B68C31A934201D8FFF7C5F801237E
:10344000109A08601370FFF7BFF801239C46FFF73E
:10345000F0FA0123249353461A2B01D0FFF7CDFA3B
:1034600001239C46FFF7EAFA07239A461A23149A87
:1034700052A81370083B06221818002105F0B4F971
:103480004A46E3781370237953706379042B00D193
:1034900018E31A229346FFF722FB002B01D1FFF716
:1034A00004FB1623FFF707FB169BAA46002B01D14E
:1034B000FFF701FBFFF7CAFB099B1B88002B01D11B
:1034C000FEF7B9FE03F04CFC002901D100F0F9FC35
:1034D000FA220023920004F093FA299B1A68831AB7
:1034E000FA22D200934201D2FEF7A5FE089B1B7878
:1034F000002B05D0099B1B88002B01D1FEF79BFEFA
:1035000003F02EFC002901D100F0F1FDFA22002386
:10351000920004F075FA43461860069B1B785A1E09
:10352000012A01D800F0F0FD002B01D000F0EBFEE5
:10353000079A1178127852B2002A01DB00F0C3FE1C
:10354000219A138001230A9A13700023089A13709A
:10355000FEF775FE1A003B9B1860329B1860359B86
:103560001860349B1A70A34B984201D800F00AFEF1
:10357000A14B984201D900F035FFA04BA049C318D8
:103580006420584304F0FEF9439B379A18700123D6
:103590001370309A13702D9A1370479B489A1D60D0
:1035A0005D609D60DD601D615D619D61DD611D622D
:1035B0005D629D62DD621D635D639D63DD6300236B
:1035C0001370409A1370369A1380002F00D0FBE1DD
:1035D000FA22379B52011B780C93339B1B68F31A1A
:1035E000934230D2309B30001D78FDF76FF8002DEC
:1035F00000D0FDE23E9B834A1B68F31A934242D8F7
:103600000C9B002B01D1FEF7A2FF2D9B1B78002BFA
:1036100001D1FEF79CFF3EE001210B9B1A780B00C5
:1036200013400C93114200D0F7E10121199B1A7845
:103630004A401A700F9B0C9A1A7003239A46023B59
:103640000C93FEF7DAFB3B9B0C9A1B68002A00D018
:103650007DE301222F9930000A70339A4999166050
:10366000694AB2180A60329A1360359A13600023CF
:10367000349A1370369A1380309A01331370FDF721
:1036800025F80123159301232D9A13700C9B002B11
:1036900001D1FEF75CFF43461B68F31A312B01D8BA
:1036A000FEF755FF069B0E9A1B7812781343079A74
:1036B0001278134301D0FEF74AFF2A9B1B78002B98
:1036C00001D0FEF744FF319B1B78002B01D0FEF7A1
:1036D0003EFF4B9B1B78002B01D0FEF738FF439B2E
:1036E0001B789C462F9B1B78013BDBB2032B01D937
:1036F00000F0F2FE519AD05C3B9B529D19682A78EB
:103700000B0A0C93531C2B70159B4A9F5D426B4117
:1037100001255B42AB4303353D703D00E9700C99D8
:10372000033329710121AB71002367466A71319A15
:10373000EB7111702D9A2B721370309A6F70137099
:103740003E9BA8701E60FEF702FF072801D100F023
:103750000CFD5346072B01D100F000FDE3799C4698
:1037600001230C93FEF7B1FB219B1D882E0A03F069
:10377000F7FA002900D1BAE1FA220023920004F0FE
:103780003FF943461860069B1A78531E012B00D858
:10379000B9E1002A00D0B9E1079B19781B785BB228
:1037A000002B01DAFEF741FD7F201A9B1B78CB1816
:1037B0001840C3001B181B980131C31802205D700C
:1037C00018709E70DA701A715A719A71DA711A72E1
:1037D000079B1970219B099A1B8808991380012265
:1037E0000A70002B00D0A9E30A9A1370FEF723FD9C
:1037F0002F750000EA0B00005D10000016F4FFFFBB
:10380000740400001F4E0000B80B00001A2801D1FC
:1038100000F08EFC072301229A46FEF76EFB162865
:1038200036D0E3799C4601231593FEF786FB0123EE
:1038300022935346072B01D0FFF7BEF81A2801D177
:1038400000F010FE239B1A2B01D100F0F3FD7B79D1
:103850001A2B01D100F0AEFDBB791A2B01D100F07B
:10386000E4FDFB799C461A235B429C4461464B4233
:103870004B419C4601232493FFF7E0F8063A1A28AF
:1038800001D0FEF735FB5346162B01D0FFF72EFA79
:10389000012315931693FEF766FB5246042A00D0C7
:1038A00043E2CAB249468978994201D0FFF72EFB1C
:1038B000637A042B00D10DE3072B01D0FFF755F9F4
:1038C000FFF742FB5246042A00D036E2CAB249460C
:1038D0008978994201D0FFF7E4FAA37A042B01D04A
:1038E000FFF702FB5146042901D1FFF7A9FAFFF7C0
:1038F00055F95246042A01D0FFF750F9CAB2FFF732
:103900009FFA002901D0FEF75FFE079A1278134351
:1039100001D0FEF759FE319B1B78002B01D0FEF73A
:1039200053FE43461B68C31A132B01D8FEF74CFE07
:10393000FA22539992000B68C31A934201D2FEF700
:1039400043FEBA4B2E9A9B6A12689B1A952B01D89C
:10395000FEF73AFE0860FEF721F9FEF735FEFA2180
:10396000890004F00FF8FEF73EFEFA21890004F00A
:1039700009F8FEF763FEFA21890004F003F8069BBC
:103980001B78022B01D0FEF7DCFC109B1B78002B70
:1039900005D0429B1B68C31A01D400F01BFC289B76
:1039A0001B781593FEF71AFDFA21890003F0EAFF50
:1039B0000600FEF723FD329B349A1D60359B1D6087
:1039C00000231370369A1380042F00D005E1FA22E9
:1039D000339B52011B68F31A934200D2FDE001238E
:1039E0002F9A32991370339A300016603B9A1268FE
:1039F0000A6035990A60002234990A7036990A8063
:103A0000309A1370379B1B780C93FCF75FFE0123F1
:103A1000159338E60222FFF785FBA3799C46032322
:103A20009A466346392B01D0FEF7ECF9920701D58F
:103A3000FFF78DF903230C93FFF7B7FB072800D19D
:103A4000E9E33B799C46072B01D100F0E0FC7B7950
:103A5000072B01D100F0D0FCBB79072B01D100F07E
:103A6000C4FCFB799C4607235B429C4461464B4265
:103A70004B412493012322931A2801D0FEF7C1FF62
:103A80005346162B00D164E401239C46FEF7DAFF6F
:103A9000072B00D1BFE33B79072B01D100F06AFC73
:103AA0007B799C46012322936346072B01D0FEF7C6
:103AB00091FF53461A2B01D100F063FD012324939B
:103AC000FEF79FFFA379042B00D133E21A2293461D
:103AD000FFF716F85346072B01D100F062FC0728C8
:103AE00001D100F050FC01232293FEF76EFFFA2172
:103AF000890003F047FF43461860069B1A78531E5F
:103B0000012B00D945E60123109A13700E9B1978FA
:103B10001B785BB2002B01DAFEF787FB7F22259B27
:103B20001B78CB181A40D3009B18269A0131D31862
:103B300002221A7000225D709E70DA701A715A713A
:103B40009A71DA711A720E9B197043E61A2B01D121
:103B500000F01DFC01232493239B1A2B01D0FEF7B8
:103B600055FF5346162B01D100F0D0FC0123787984
:103B70009C462493162801D0FEF76EFF0C9B002B69
:103B800001D0FFF7DFFA60469A4201D1FEF776FFD7
:103B90000120FFF701FC9D4202D9359B1D602B00DF
:103BA000329A13605B1B0B2B04DC214B9D4201D925
:103BB000FEF7B3FC329B349A1D60359B1D600023D9
:103BC0001370369A13802F9A04331370339B309AF4
:103BD0001E60012313702D9A1370309B30001D78E6
:103BE000379B1B780C93FCF771FD002D00D101E58C
:103BF000159548E52A9A1278002A01D0FEF7EEFBC7
:103C0000079A1278002A01D0FEF7E8FB31990A7072
:103C10002D9A13704F9A1370509B069A18600223C6
:103C20001370429B0A301860FEF7D8FB0040054035
:103C3000171000009388012B01D0FEF70AFD93793D
:103C4000012B01D0FEF705FDD379012B01D0FEF742
:103C500000FD812311899B01994201D0FEF7F9FCF7
:103C6000D368CF490A3BFF3B8B4201D9FEF7F1FCF9
:103C7000012301205569CB49CB4E5B4217780132B5
:103C80007B405F0803405B420B407B405F08034082
:103C90005B420B407B405F0803405B420B407B4034
:103CA0005F0803405B420B407B405F0803405B4280
:103CB0000B407B405F0803405B420B405F407B084A
:103CC00007407F420F405F407B089C463B006746B1
:103CD00003405B420B407B40B242CFD1DB439D426D
:103CE00001D0FEF7B6FCB1488369043301D0FEF77A
:103CF000B0FC0369C27A817A00930C200023FDF79F
:103D000073F82B9A13780133137003F029F8002904
:103D100001D100F08CFCFA220023920003F070FE27
:103D2000389BFA301860FEF797FC637ACAB2042B0E
:103D300001D0FFF7FFF9FFF769F9A37ACAB2042BA4
:103D400001D0FFF767F9FEF729FF3B9B1B68984AF4
:103D5000934200D872E101220C9202327AE4319946
:103D60000B78002B01D1FEF7D6FA4A9B58781D78C4
:103D70000C9018799E7884465879DF78229098794B
:103D80001690D8791590187A0A70FEF797FA0B9B5F
:103D90000C9A1A70A3799A46042B00D16BE3E3794D
:103DA0009C46042B00D1D4E4237A042B01D0FEF7E7
:103DB00072F801230C93FEF77DF8159B002B01D0C0
:103DC000FFF789FA169B002B01D1FEF774FEFEF770
:103DD0003DFF429B1B68C31A01D5FEF7FFFA08227C
:103DE000002154A804F000FD4A46099B7F271B8848
:103DF000138000235380069A579313700E9B1E78EE
:103E0000002E2BD043460C930E9B98465346169398
:103E1000259B9A465B462293269B9B4653461D78DC
:103E20000922E90049195944200004F0E3FC5346F3
:103E300001353D401D704346013E1E701D2352AAB0
:103E400099182078FCF726FF43461E78002EE5D10E
:103E50000C9B9846169B9A46229B9B46119B54A905
:103E60001B78002B00D012990023079EF35635785B
:103E7000002B10DB1A9B1A787F23AA181340D80056
:103E8000C0181B9B0822181801230135037001304C
:103E900004F0B0FC357049460220FCF7FBFEFEF74B
:103EA0009DFA4A469370A379042B00D1CAE0072BF0
:103EB00000D16AE104221A2192468B46013AFEF7AC
:103EC00024FEFA21890003F05DFDFFF706FB0322C3
:103ED000FFF755F85146042901D1FEF7DCFFA37A1C
:103EE000042B01D0FFF796F8FEF758FEE379032282
:103EF000042B01D0FFF775F85246042A08D1013A85
:103F0000FFF731F82A00FFF713F80522FEF7E3FF69
:103F10000322FFF707F9A37A042B00D1E2E4072B71
:103F200001D0FEF732FE5346072B01D1FEF788FF82
:103F3000FEF734FE1A239B46FFF7B7F902F010FF95
:103F4000002900D1CEE0FA220023920003F058FDB0
:103F50000022299B0A991860089B0A701B78FEF7BB
:103F600066F90622FEF78FFF5146042901D1FEF7BC
:103F7000C7FF637A042B01D0FFF7DCF8FFF746F8A0
:103F80003D98FDF79DFDAB6A2E9A1360002800D185
:103F900013E100232A9A13703C9A1370FEF7BBF9C1
:103FA000F7FE1E002083B8ED14F03F1000F03F1024
:103FB0005D1000003B9B1860E94B98420BD9E94B20
:103FC000984200D964E2E84BE849C318642058439A
:103FD00003F0D8FCC7B2439B349A1F70329B1D601C
:103FE000359B1D6000231370479A156055609560DE
:103FF000D560156155619561D5611562556295620F
:10400000D562156355639563D563489A1370409ADA
:104010001370369A1380FA22339B52011B68F31AED
:10402000934200D391E6309B30001D78FCF74EFBA5
:10403000002D01D1FFF7DEFAFEF733FC01220C92CE
:10404000FFF707FB1A239B464B469A78AA462B009C
:104050000321042A01D0FEF7BDFFFFF755F8409A6F
:10406000002112789446002A01D0169AA91A022F2C
:1040700001D0FEF72CFA9D4200D80DE20022359BBC
:104080001D60369B1A802B0032980360B54885422C
:1040900000D916E25B1B0B2B00DD8BE5B44B9D4278
:1040A00001D9FEF73AFA2C2A01D8FEF736FA002990
:1040B00001DDFEF732FA329B349A1D60359B1D609C
:1040C00000231370369A13802F9A01331370339A9A
:1040D0001660309A13702D9A1370FEF71EFA0020A6
:1040E000FEF7C1F9FA21890003F04CFC30E7FA2110
:1040F000890003F047FC43461860069B1B785A1E54
:10410000012A01D9FFF710FA012210990E980A70BE
:104110000178007840B2002800DBFBE00021219804
:1041200001800A990A70002208990A70FEF785F842
:104130000123159363460122162B01D0FDF702FFE0
:104140000D9B1A78002A00D052E20C9B934200D0BB
:1041500073E20723139A1370FDF728FF1A2800D182
:1041600022E201230C93FFF755FB53461A2B00D193
:1041700020E2237A1A2B00D125E2012301220C939D
:10418000FDF7C6FE0020FFF7FFF904239A46163319
:104190009B460322FFF76EF8419B0021186802F04E
:1041A00049FBFDF7E0FD193B159363460122162BF1
:1041B00001D0FDF7C7FEFEF7CDFB3C9964330A78CA
:1041C00001320A7046990A6801320A60419A136006
:1041D000FEF7A1F8D02580262D06B6020021642026
:1041E000AE6102F08BFB0023179A6E6113700322FD
:1041F00006990A70109A137002F0B2FD002900D1DE
:104200000EE1FA220023920003F0FAFB429BFA30FF
:104210001860FFF7C4FB3B791A2B00D1FAE07B79D9
:104220001A2B00D1EDE0BB791A2B00D1E9E0012374
:1042300022932493FEF7F4FB53461A2B00D1A9E1F5
:1042400007239C46237A1A2B00D1A7E1637A1A2B05
:1042500000D1A3E1012301220C93FDF75EFEE37977
:104260009C461A2B00D19FE1237A1A2B02D0637A45
:104270001A2BEFD101231A0015930C93FDF75DFE65
:10428000022F00D106E1032F00D188E41900FEF7C8
:1042900022F95346162B00D149E16346162B00D173
:1042A00097E1012301221593FDF751FE01230C93A1
:1042B000FFF7B7FA53461A2B00D16BE10123012215
:1042C0000C93FDF71AFE7F201A9A12788A18104074
:1042D000C20012181B98013182180220537010700E
:1042E0009370D370137153719371D3711372079AD2
:1042F0001170099A13800123089A137000230A9AF7
:104300001370FDF79CFF0E9A1178127852B2002AB2
:1043100000DA71E17F20259A12788A181040C200D5
:104320001218269801318218022010700020507057
:104330009070D070107150719071D07110720E9A8F
:104340001170099A0899108001220A7000220A99B6
:104350000A70FDF772FF012301221593FDF7E8FDB6
:10436000EA0B00005D10000016F4FFFF740400006B
:104370000310000053461A2B00D1EDE001232293D5
:104380002493FEF743FB1A2BF8D101232293012338
:1043900038799C462493162801D0FEF758FBFFF786
:1043A000EDFB01231A2836D022937B791A2B01D0FA
:1043B000FFF752FA01239C462493162801D0FEF7FA
:1043C00041FB0C9B002B01D1FFF7DDFB002A00D144
:1043D0007CE1139B01201B789A46FEF7BEFE642009
:1043E000FEF741F86420FFF7CFF81A2812D0012316
:1043F00024932293FEF705FB1A280BD063461A2B51
:10440000BCD101239C4624932293FEF717FB1A2864
:1044100000D004E701239C4624932293FEF712FB6D
:10442000FA21890003F0AEFAF0E601239C462493BA
:10443000FEF704FB162801D1FEF777FF01237879F8
:104440009C462493162801D0FEF706FB0C9B002BFC
:1044500001D0FEF777FE60469A4201D0FEF712FBCC
:10446000FEF70CFB012338799C462493162801D0D3
:10447000FEF7EDFAEAE7E3799C46072B00D185E0E9
:10448000237A072B00D181E001230C93FDF722FD55
:104490006427A0E52B0000219620369F80003A88F3
:1044A000824200D3F0E5013292B23A80ECE5349AD0
:1044B00002335BB21370022B01DCFEF72EF8FEF71D
:1044C000D7F90023349A1370369A13800333FEF71A
:1044D000D7F90322FEF747FD0420FFF70DF9359BBE
:1044E000349A1D60329B1D6000231370369A13802E
:1044F0002F9A03331370339B1E60309B1F702D9BCC
:104500001F70FEF70AF80221FEF764FD0C9B002BDA
:1045100001D0FEF70FFF9A4200D1C4E007239A466C
:10452000063B9C461800FEF7ADFA01230C930D9B49
:104530001B781693002B01D0FEF713FA0C9B002B6F
:1045400000D106E6139A1378042B01D1FEF7EAFE98
:1045500007231370FDF72AFD01232293FFF706FBC3
:10456000207A193B1A001593162801D0FDF7EFFCAD
:104570000D9B1B780C93002B00D099E01692FDF751
:1045800001FD01239C462493FEF75CFA01220C9264
:10459000FDF7B3FC01220C92FFF743F901231A0047
:1045A00015930C93FDF7C4FC01231A0015930C938B
:1045B000FDF7C8FC0122207A15920C92162801D032
:1045C000FDF7C5FCD4E75346162BAED001230C9360
:1045D00067E60D9B1B781693002B01D0FEF7C1F9FF
:1045E0000C9B002B34D1013315931693FDF7D1FCAE
:1045F00015921692FEF7B7F90023219A0A991380B3
:1046000001220A70089A1370FDF785FE3F212B00E6
:10461000414320335B1832999B090B60002A01DC6F
:10462000FDF77BFF349B013A1A70FDF776FFFA2104
:10463000890003F0A7F9FFF773FB139B1B78042B8A
:1046400001D1FEF76FFE5246139B1A70FDF7AEFCC8
:104650000C9B15931693FDF795FC1070FDF7A6FCC7
:104660009A4220D001239C461800FEF70BFA5246CE
:104670001A2A8FD09C461A2B0CD0637A1A2B8DD015
:10468000A17A01221A394B425941CBB215930C92AF
:10469000FDF74EFC162A87D101231A0015930C93BF
:1046A0001693FDF760FC01339C461800FEF7E6F90F
:1046B0000C9B1A0015931693FEF755F9139B1B7864
:1046C0009A4601239C461800FEF747FD0120FEF79D
:1046D00038FEC046F0B5C6463F2300B5164D174A12
:1046E0002C781678E1B201341C40B4420AD1167815
:1046F000B4460126B444664633401370104A13682A
:10470000013313608B005B185B005B1800218C4643
:104710000C4A9954D1184870604603338870981831
:104720000021082204F060F8BFF35F8F2C7040BFB7
:1047300080BCB846F0BDC046EB7A0220EC7A02207D
:10474000DC770220E0770220F8B53F23174E1849A6
:10475000347805000878E2B201341C40844207D165
:104760000878013003400B7012490B6801330B606D
:104770009000801840008018012200270E4B002175
:10478000C2541A18033055709770C018082204F0EC
:104790002BF8BFF35F8F347040BF084B1A78AA42E2
:1047A00002D11F70064B1F70F8BDC046EB7A022085
:1047B000EC7A0220DC770220E0770220CA7A02201D
:1047C000CC7A0220F0B5D6464F464646C0B582B0F8
:1047D00005000C009146984607F03AF88246032CF3
:1047E00007D9012827D002B0E0BCBA46B146A84696
:1047F000F0BDD02767438A4BD022FE18002130003D
:10480000019303F0F1FF0022864B1A55019BFD54E2
:104810004B46002B03D04346002B00D0A3E0534669
:10482000012B09D02100280007F082F801227E4BDD
:1048300050401855D7E7002601227C4B7C491D705B
:104840007C4B88461C707C4B1A7000230B707B4994
:104850000B707B4B0F001A7099468023794A5B02DC
:10486000136002239246938002F07AFA002900D165
:1048700074E0FA220023920003F0C2F8724B734AEC
:104880001860734B186000231370724A1370724AD9
:104890001370002E37D07378002B2DD0B288012AE8
:1048A00000D187E0012B27D03289012A00D18CE08A
:1048B000022B21D0B289012A00D18CE0032B1BD01E
:1048C000328A012A00D18CE0042B15D0B28A012A49
:1048D00000D18CE0052B0FD0328B012A00D18CE067
:1048E000062B09D0B28B012A00D18CE0072B03D014
:1048F000338C012B00D18CE0CE23F35C002B4BD109
:1049000043461B783B70554B55491E781F003F238B
:104910000878F2B201361E40864207D1087801308D
:1049200003400B704F490B6801330B6090008018F7
:104930004000801802224C4B0021C2541A18033048
:1049400055709470C018082203F04EFFBFF35F8FBC
:104950003E7040BF032C00D864E744E7FA21890089
:1049600003F010F88AE7B81C4F46019B3A00082173
:104970001818434607F0AAF9424639007070300013
:10498000FBF77EFC424639003000FBF765FF5346DB
:10499000012B00D046E74FE7C523F35C4A463B7046
:1049A000C623F35CC8361370524633681360B3886D
:1049B0009380A8E7F278062A00D073E700234246E6
:1049C0009B00F3189B78137096E7F279062A00D0C3
:1049D0006EE70123F3E7F27A062A00D06EE702239E
:1049E000EDE7F27B062A00D06EE70323E7E7F27CCF
:1049F000062A00D06EE70423E1E7F27D062A00D004
:104A00006EE70523DBE7F27E062A00D06EE7062379
:104A1000D5E7F37F062B00D06EE70133CFE7C04622
:104A2000D4500220D050022014540220CA7A02200E
:104A3000CF7A0220CB7A0220CC7A0220D17A0220CF
:104A4000723D00206C3D00201C540220CE7A0220D2
:104A500038540220CD7A0220D37A0220EB7A022049
:104A6000EC7A0220DC770220E0770220F0B5D6460F
:104A70004F464646C0B52D4D0C002B78834206D0DC
:104A8000032C38D9E0BCBA46B146A846F0BD284B45
:104A90001B788B42F4D13F22264B9A461B78D9B221
:104AA000013313401E009946234B1F78BE4230D07D
:104AB0008B005B185B005B180321204A9954D118C6
:104AC000033348708C7098180021082203F08CFE84
:104AD000BFF35F8F53464A461A7040BF0023184AFF
:104AE0002B701370174A1360174A1360174A13701C
:104AF000174A1370C4E7D0200025164B60431D559C
:104B0000154BD022C018002103F06EFE134B1D552B
:104B1000B8E71E78B4460126B444664632401A709F
:104B20000F4A136801331360C2E7C046CA7A0220F5
:104B3000CB7A0220EB7A0220EC7A0220E077022086
:104B4000CC7A02201C54022038540220CE7A022053
:104B5000CD7A022014540220D4500220D0500220DA
:104B6000DC77022070B51A4C8C460E0021780500C7
:104B7000814203D117490978614500D070BD1649BB
:104B800009789142FAD1022BF8D10022134B1A7006
:104B9000134B1A7002F0E4F8002913D0FA22002314
:104BA000920002F02DFF0F4B217818608122002027
:104BB00007F032FE00220C4B310028009A5506F017
:104BC000B7FEDBE7FA21890002F0DCFEEBE7C04626
:104BD000CA7A0220CB7A0220D17A0220D37A02202C
:104BE000D47A02201C54022014540220F0B5454609
:104BF0004E46DE465746E0B515006F4A1C00136866
:104C000089B0013313606D4B0E0080461978032E76
:104C100000D9D0E1002C00D1DBE10020684A2B5CF8
:104C200001305A4013049B185B009B18DB009B1853
:104C3000DB009B185B009A1883B29C42EFD8614B53
:104C4000B000C250604B7200D45201225F4B9A55A3
:104C5000D02373435E4AD05C404522D0884500D0C3
:104C60009AE15C4B1B78B34200D095E1002300270A
:104C70009A46002C60D10022574B1A7002F070F84F
:104C8000002900D06EE3FA21890002F07BFE534B2D
:104C900018605346002B00D15BE3002F00D0B4E135
:104CA00057E3D7187878002800D173E1012800D1A4
:104CB0005BE1002C00D18EE12B789946BB784B4507
:104CC00000D15AE1BB794B4500D1C4E3022829D079
:104CD000BB7A4B4500D1C9E3032823D0BB7B4B45AE
:104CE00000D1C5E304281DD0D02373439C469444CF
:104CF00063469B7C4B4500D1BCE3052812D063463C
:104D00009B7D4B4500D1B7E306280BD063469B7EC5
:104D10004B4500D1BEE3072804D06346987F484541
:104D200000D1B9E3884500D036E12A4B1B78B34265
:104D300000D031E100239A4602F012F8002900D198
:104D40000BE3FA220023920002F05AFE244B186073
:104D5000002D9ED00822002106A803F045FD082C56
:104D600000D1D4E3092C00D1A2E32A78092C00D881
:104D700084E31C4B1B78002B01D0934206D0531EBA
:104D80000E2B00D98AE30B2C00D887E3A11E89B231
:104D90006A78AB1C039169460A7601229346013278
:104DA00001920022013B914601210220033202932D
:104DB000049505942CE0C046D0770220CA7A0220E0
:104DC000C59D1C81B8500220C8500220D05002203E
:104DD000D4500220CB7A0220CE7A0220385402200E
:104DE0001C540220CF7A0220039C8BB29C4200D834
:104DF0008CE04B4608339BB29946019B083208333E
:104E00009BB201935B4608339BB29B46013192B241
:104E1000029B5B5C002BE7D001241C420BD0D41F0B
:104E2000E32C08D8441CE4B2A4464D4606AC2554F5
:104E3000604608286AD002241C420BD0941FE32C41
:104E400008D8441CE4B2A4465D4606AC255460462E
:104E500008285BD004241C420BD0541FE32C08D834
:104E6000441CE4B2A446019D06AC255460460828C3
:104E70004CD008241C420AD0141FE32C07D8441C31
:104E8000E4B2A44606AC2254604608283ED0102462
:104E90001C420BD04C46E32C08D8441CE4B2A44678
:104EA00006AD541C2C54604608282FD020241C42E8
:104EB0000BD05C46E32C08D8441CE4B2A44606ADF3
:104EC000941C2C546046082820D040241C420BD04F
:104ED000019CE32C08D8441CE4B2A44606ADD41CC3
:104EE0002C546046082811D0DB0900D17CE7E32A66
:104EF00000D979E7131D06AC2354039C8BB29C4266
:104F000004D90130C0B2082800D072E7049D059C86
:104F10003F21354B354899461B788446DAB20078F4
:104F200001330B409B46834208D163461878013019
:104F3000014019702E490B6801330B6093009B18D8
:104F40005B009B1804222B4806A91A54C01843463C
:104F5000867043700432033003F04CFCBFF35F8F64
:104F60004B465A461A7040BF93E6B878002809D0DD
:104F7000002C30D02B7898420CD10020342373437E
:104F80001B189B000233D21853880C2B02D1537884
:104F9000012B37D0884515D03100404606F0C8FCBB
:104FA0000122154B5040985509B0F0BCBB46B246A3
:104FB000A946A046F0BD8842F6D1104B1B78B342FB
:104FC000F2D153E60D4B1B78B342E5D100239A464C
:104FD0004FE60B4A33E68845DED1084B1B78B342D7
:104FE000DAD100239A4646E6EB7A0220EC7A0220D8
:104FF000DC770220E077022014540220CB7A0220D2
:10500000C59D1C81884500D127E27978002934D0DC
:10501000BB78002B00D0D2E1012900D1E6E1BB79B9
:10502000002B00D0CBE1022900D1DFE1BB7A002BBD
:1050300000D0C4E1032900D1D8E1BB7B002B00D014
:10504000BDE1042900D1D1E1BB7C002B00D0B6E149
:10505000052900D1CAE1BB7D002B00D0AFE10629B4
:1050600000D1C3E1BB7E002B00D0A8E1072900D10D
:10507000BCE1B97F002900D0A1E12223FB5C9A4664
:10508000002B00D17FE1E3009B463B0000228946D4
:105090002433039401961978494500D06BE11879BF
:1050A000411E0F2900D966E15F883918594500D99A
:1050B00061E10724F908695C3C40E1400294C907BA
:1050C00000D483E10121012800D151E17C1CA4B26C
:1050D000E608AE5DB446072634406646E640F4076F
:1050E00000D477E1022800D142E102242143BC1C14
:1050F000A4B2E608AE5DB446072634406646E640F4
:10510000F40700D46EE1032800D131E104242143E7
:10511000FC1CA4B2E608AE5DB446072634406646E1
:10512000E640F40700D463E1042800D120E108241C
:1051300021433C1DA4B2E608AE5DB44607263440C8
:105140006646E640F40700D456E1052800D10FE199
:10515000102421437C1DA4B2E608AE5DB4460726A8
:1051600034406646E640F40700D449E1062800D101
:10517000FEE020242143BC1DA4B2E608AE5DB44687
:10518000072634406646E640F40700D43CE1072891
:1051900000D1EDE040242143FC1DA4B2E608AE5D41
:1051A000B446072634406646E640F40700D42FE1B3
:1051B00080242143082800D175E10824A446BC447A
:1051C0006446A4B2E4082C5D2600029CE640F60783
:1051D00000D424E1092800D1CAE0802676003143BA
:1051E0003E000936B4B2E608AE5D029607263440AA
:1051F000029EE640F60700D415E10A2800D1B7E088
:105200008026B60031433E000A36B4B2E608AE5DF1
:10521000029607263440029EE640F60700D406E1D7
:105220000B2800D1A4E08026F60031433E000B3667
:10523000B4B2E608AE5D029607263440029EE64010
:10524000F60700D4F7E00C2800D191E08026360163
:1052500031433E000C36B4B2E608AE5D0296072636
:105260003440029EE640F60700D4E8E00D2800D165
:105270007EE08026760131433E000D36B4B2E6086A
:10528000AE5D029607263440029EE640F60700D443
:10529000D9E00E286CD08026B60131433E000E3690
:1052A000B4B2E608AE5D029607263440029EE640A0
:1052B000F60700D4CBE010285AD18020C00101436A
:1052C00007260F37BFB2F808285C3E40F040C00701
:1052D0004ED4187A002802D100294CD0D988B6299A
:1052E00000D83FE10800CD3880B21D2843D8A14E38
:1052F000C640F6073FD50800019E9F4B9F4A19788C
:1053000099463F231578CCB201311940A94207D103
:10531000157801352B401370994A136801331360D7
:10532000A2001219520012190524964BD4549B184E
:1053300042465A7000229E70D8701A715A719A7142
:10534000DA711A725A729A72BFF35F8F4B461970F4
:1053500040BF032E00D927E61EE6FA21890002F09D
:1053600011FBF3E4FA220023920002F049FB8EE4E1
:10537000197A0029B2D00132D2B20A33524500D094
:1053800089E6039C019E012C17D92A0053781078D6
:105390001B02184300B2B6283EDD0300CD3B9BB292
:1053A0001D2B03D87349D940C907A6D4531B023318
:1053B0009BB201330232A342E8DB00209DE7002CC0
:1053C000FBD0013C2978A4B2013556E60128D2D0A1
:1053D00000217BE6022800D089E6187A002800D157
:1053E0007AE7C8E7032800D092E6F6E7002144E612
:1053F000042800D09DE6F0E7052800D0AAE6ECE7F7
:10540000062800D0B7E6E8E7072800D0C4E6E4E7BE
:10541000082800D0D1E6E0E7B428C7DD6DE7092809
:1054200000D0DDE655E70A2800D0ECE651E70B286E
:1054300000D0FBE64DE70C2800D00AE749E70D282D
:1054400000D019E745E70E2800D027E741E71028EC
:1054500000D135E73DE7012090E54B4B1B78B34287
:1054600000D0D2E501239A46FFF703FC022085E530
:10547000032083E5042081E505207FE506AB1A7053
:10548000022C00D844E5A21E92B2A91C981C03F07D
:10549000B1F93DE5062071E507206FE5611E89B28F
:1054A0006B1C039177E4187A002800D017E715E702
:1054B00002206B7806AA13708018E91C0622814628
:1054C00003F098F906AB9B78013B022B19D906AB88
:1054D000DB78013B022B14D96B461B7F013B022B6F
:1054E0000FD906AB5B79013B022B0AD906AB9B793E
:1054F000013B022B05D906ABDB79013B022B00D91E
:1055000006E506220021484603F06EF900E5082270
:10551000290006A803F06EF9002306AA53709378B9
:10552000013B022B22D906ABDB78013B022B14D9BD
:105530006B461B7F013B022B0FD906AB5B79013B0E
:10554000022B0AD906AB9B79013B022B05D906AB8E
:10555000DB79013B022B00D9DAE4022306AA9B186F
:105560009946CEE7B42900D9C5E604E702239B1883
:105570009946C6E701002030EB7A0220EC7A02203F
:10558000DC770220E0770220CB7A0220F0B5DE46FD
:1055900057464E464546E0B5A7B0064820AB1CAA84
:1055A0001AA901F0F3FD002808D10348014900F0D1
:1055B000D9FCC0460077010020DA0010D14C209AB7
:1055C0001C991A9801F008FD06F07AFD2000CE49DA
:1055D00007F0E2FB0223CD4962680B601A402368A2
:1055E0000724CF2163400B40C94912200B60C94BEF
:1055F00001211A6000F006FC0121132000F002FCDA
:105600000121102000F0FEFB00220121102000F0FB
:1056100011FC112000F088FCD02380221B0692028E
:105620005A6220005A61042100F0ECFB042108209A
:1056300000F0E8FB0920042100F0E4FB0322002530
:10564000B54B063C1A60B54B01321A60B44BB549F4
:105650001A60B54BFB321C60B44B1D60B44B1C6030
:10566000B44BDA641A661A66B34BB44A1B681B0C57
:105670001B0413600B68B24A9BB213600B682100D5
:105680001B0C1B0413602200AE4B1B689A43AE4BED
:105690001A60AE4A13689943AD4B19602100126835
:1056A0009143196007F002FC1F211C2000F0AAFBA7
:1056B0002A0029001C2000F0BDFB29001C2000F05E
:1056C00021FCA44BFA201A6880239B015340E0225E
:1056D000D2011340A04A21001360C00001F0FCFE7B
:1056E000FBF78CFA0200511E8A419C4B04001860A3
:1056F0009B4B18609B4B18609B4B1D709B4B1A700B
:105700009B4B984200D95BE29A4B1D7001F028FB3D
:10571000002900D14FE2FA220023920002F070F932
:105720000022954B1860954B1860954B1A70954B5D
:105730001860954B1A70954B1A70954B1C605C6005
:105740009C60DC601C615C619C61DC611C625C6271
:105750009C62DC621C635C639C63DC638D4B1A702F
:105760008D4B1A708D4B1A80FAF7B0FF01F0F8FAE2
:10577000002900D1A9E2FA220023920002F040F9A8
:10578000874B0025186003201AA91A901B95FBF778
:1057900081FA04F009FE834804F07EFE824B1CAAC5
:1057A00013CB13C21B6864211360042318AA13745B
:1057B00001201CAA05F018F8280006F05FF8022363
:1057C00018AA1384012020A905F012F8774B784C11
:1057D0000493784B784E0593784B794F9B46794BE1
:1057E0009846794B0693794B0393794B0A93794BFF
:1057F0000993794B0E93794B1193794B1293794B13
:105800000C93794B1093794B0893794B0D93794B0B
:105810000F93794B1393794B1493794B1593794BE1
:105820001793794B1893794B1993794B9946794B88
:105830009A46794B0B935346DA469B46049B1B785A
:10584000002B00D0A6E1059A1378002B04D0534614
:105850001570186808F090F801F034FE012000215E
:10586000404205F05BFA01F07BFA002900D1B4E177
:10587000FA220023920002F0C3F843461B68C31AC1
:10588000012B3AD9434618602378002B09D0307891
:10589000002800D18BE1002106F04AF8002800D052
:1058A00085E16378002B0AD0D023F05C002800D17A
:1058B0007FE1012106F03CF8002800D079E1A378CF
:1058C000002B0BD0D0235B00F05C002800D16CE1F2
:1058D000022106F02DF8002800D066E1E378002BC5
:1058E0000BD09C239B00F05C002800D155E10321E4
:1058F00006F01EF8002800D04FE13B78002B00D1C5
:1059000050E18BE000C0034000127A0004F0034035
:1059100000D0034004E00340107302200C73022007
:10592000087302205C000540384F0020344F0020EF
:10593000304F002000000540480005404810054059
:105940005C1005403C0005403C10054050000540FF
:105950005010054000C0044000D004400C4E002010
:10596000044E0020084E0020B67A0220B37A0220AE
:10597000EA0B0000B27A02202C4E0020144E0020C8
:10598000B07A0220184E0020B77A0220B57A0220A1
:1059900058440020AF7A0220AE7A0220A27A022078
:1059A0006C6E0220151C0010C8DB0010BD7A0220AE
:1059B00014540220BB7A0220D4500220804F0020D1
:1059C000CC7A022040540220D47A0220CE7A0220DF
:1059D000CD7A022038540220CA7A0220C0DB00109F
:1059E000390D00101C540220CB7A0220D07A0220FC
:1059F00020540220D97A02205C6E0220D37A022041
:105A0000285402206C3D0020723D0020D17A0220F3
:105A1000683D0020CC770220D67A0220039B1B78B9
:105A2000002B00D1DEE00A9B1B78002B2DD101F06A
:105A300097F9002900D11AE1FA220023920001F01F
:105A4000DFFF099B1B68C01A16D41822002120A86A
:105A500002F0CAFE0E9B18AA1B7820321370119B0D
:105A600020A82293129B249304F050FF002800D119
:105A700008E101230A9A13703B78002B00D191E0D2
:105A8000039B1B78002B00D1ACE0069B1D70089B8C
:105A90001B78002B56D101F063F9002900D1E1E019
:105AA000FA220023920001F0ABFF0D9B1B68C01A85
:105AB00096235B00984245D30F9B1B78002B06D0A2
:105AC000139A1368002B3DD15368002B3AD101F093
:105AD00047F9002900D0CFE0FA21890001F052FFF8
